:0380000002837583
:0C837500787FE4F6D8FD7581210281A814
:10813800EFB410005067908145F8282873028175C4
:1081480002817802817B02817E0281810281840220
:10815800818702818A02818D028190028193028146
:108168009602819902819C02819F0281A27F3F220F
:108178007F06227F5B227F4F227F66227F6D227FD0
:108188007D227F07227F7F227F67227F77227F7C65
:10819800227F39227F5E227F79227F71227F00220F
:1080C500E50824FE602124FE602224FC602324F8B8
:1080D500602424F0602524E0602624C06027247FE6
:1080E5007026E4F5148021751401801C7514028036
:1080F500177514038012751404800D751405800816
:108105007514068003751407907F90E4F0740C25B0
:1081150014F8E6FF128138907F80EFF0907F90E5AC
:1081250008F0D394405007E50825E0FF80027F0161
:028135008F08B1
:018137002225
:10800E00C29000D292000075208E7F01C290A20015
:10801E00929100D290E520C313F5200FBF09EDE435
:10802E00F520C2917F01C290A200929100D290E5FC
:10803E0020C313F5200FBF09EDC29200C290C2906B
:10804E0000D29200007520907F01C290A200929102
:10805E0000D290E520C313F5200FBF09ED7520A4C3
:10806E007F01C290A200929100D290E520C313F539
:10807E00200FBF09EDC29200C290C29000D29200B2
:10808E000075208E7F01C290A200929100D290E5E1
:10809E0020C313F5200FBF09ED7520807F01C2901C
:1080AE00A200929100D290E520C313F5200FBF09D4
:0680BE00EDC29200C29029
:0180C4002299
:1081F200EF25E04481F520C29000D2927F01C29027
:10820200A200929100D290E520C313F5200FBF097E
:10821200EDD2907F01E520C313F520C29000A29118
:0F8222009207D2900FBF09EDC29200C290AF2019
:01823100222A
:10823200C292C290C292D292EF25E04480F5207F92
:1082420001C290A200929100D290E520C313F520C2
:108252000FBF09ED8D207F01C290A200929100D242
:0F82620090E520C313F5200FBF09EDC292D29013
:0182710022EA
:10827200C29000D292000075208E7F01C290A200AF
:10828200929100D290E520C313F5200FBF09EDE4CF
:10829200F520C2917F01C290A200929100D290E596
:0982A20020C313F5200FBF09ED04
:0182AB0022B0
:1082AC00C29000D292000075208E7F01C290A20075
:1082BC00929100D290E520C313F5200FBF09ED7504
:1082CC002080C2917F01C290A200929100D290E5D1
:0982DC0020C313F5200FBF09EDCA
:0182E5002276
:10831F00E4FF1281F2EF540FF50CEFC4540FF50D7B
:10832F007F011281F2EF540FF50EEFC4540FF50FCA
:10833F007F021281F2EF540FF510EFC4540FF511B5
:01834F00220B
:1082E6007E027C01E4FB128272E511C454F0451053
:1082F600F50B7F02FD128232E50FC454F0450EF5F0
:108306000B7F01FD128232E50DC454F0450CF50BCE
:098316007F00FD1282320282ACEC
:1081A800907F90E4F085890B530BF0E50B4401F5C3
:1081B80089781576F708760018E6F509750A00F546
:1081C8008C850A8AD2A9D2AFD28C12800E7508018A
:1081D800750C08750D05750E05750F03751009E406
:0A81E800F5111282E612831F80FBDE
:03800B000283509D
:10835000C0E0C083C082C0D075D000C000C0078517
:10836000098C850A8A1280C5D007D000D0D0D0826F
:05837000D083D0E032D3
:00000001FF
