:03800000028121D9
:0C812100787FE4F6D8FD7581200280F420
:07811300D2907F881280CF9B
:06811A00E4FF0FBF06FCAC
:01812000223C
:06812D00E4FF0FBF01FC9E
:018133002229
:0280CF00AE07FA
:1080D100C29012811AE4FD8E20E52025E0FEA20760
:1080E1009292D29112812DC29112812D0DBD08E77C
:0280F100C29239
:0180F300226A
:1080A900D29212811AE4FED29112812DA2929200EB
:1080B900E52025E0F520F508C29112812D0EBE08B4
:0580C900E6C292D29016
:0180CE00228F
:1080F400D2AFD2A8D2887509BFAF091280CF12813E
:0F8104001AD2907FA41280CF12811AD29080FEDF
:03800300028006F2
:10800600C0E0C0D075D000C005C006C0077F1512FD
:1080160080CF12811A1280A912811AD290E508C364
:1080260013F508540314601214601714601C24031B
:10803600701E750A01750B028016750A00750B080D
:10804600800E750A02750B008006750A00750B0511
:108056007FA11280CF12811AD2907FA11280CF12F7
:10806600811AD2907F811280CF12811AAF0A1280B4
:10807600CF12811AD2907F801280CF12811AAF0B55
:108086001280CF12811A128113E4FF1280CF12815F
:10809600137FFC1280CFD290D007D006D005D0D067
:0380A600D0E032F5
:00000001FF
